:020000040800F2
:1000000000300020B50400083D0400084304000847
:10001000490400084F0400085504000800000000CF
:100020000000000000000000000000005B04000869
:100030006904000800000000770400088504000837
:100040000505000805050008050500080505000868
:100050000505000805050008050500080505000858
:100060000505000805050008050500080505000848
:100070000505000805050008050500080505000838
:100080000505000805050008050500080505000828
:100090000505000805050008050500080505000818
:1000A0000505000805050008050500080505000808
:1000B000050500080505000800000000050500080A
:1000C000050500080000000000000000050500080C
:1000D00000000000050500080505000805050008EA
:1000E00005050008050500080000000000000000EC
:1000F0000000000000000000000000000000000000
:1001000000000000000000000000000000000000EF
:1001100000000000000000000505000805050008BB
:1001200000000000000000000000000000000000CF
:1001300000000000000000000000000000000000BF
:10014000050500080505000800000000000000008B
:10015000000000000000000000000000000000009F
:10016000000000000000000000000000000000008F
:10017000000000000000000000000000000000007F
:08018000000000000505000865
:1001880010B5054C237833B9044B13B10448AFF3C9
:1001980000800123237010BD0C0000200000000027
:1001A800A427000808B5034B1BB103490348AFF364
:1001B800008008BD0000000010000020A4270008EF
:1001C80080B500AF02F034FA00F010F800F07AF8C9
:1001D80000F048F80821044800F002FC4FF4FA70D7
:1001E80002F08CFAF6E700BF0004004880B590B032
:1001F80000AF07F1180328220021184602F0C6FABA
:100208003B1D00221A605A609A60DA601A61022364
:10021800BB610123BB621023FB6200237B6307F1F0
:100228001803184600F0F6FB0346002B01D000F037
:1002380093F80F237B600023BB600023FB6000233F
:100248003B6100237B613B1D0021184601F020FC27
:100258000346002B01D000F07FF800BF4037BD46B1
:1002680080BD000080B500AF144B154A1A60134BCF
:100278004FF416425A60114B00229A600F4B00222D
:10028800DA600E4B00221A610C4B0C225A610B4BA0
:1002980000229A61094B0022DA61084B00221A6297
:1002A800064B00225A62054801F028FE0346002B3F
:1002B80001D000F051F800BF80BD00BF2800002029
:1002C8000044004080B588B000AF07F10C0300225D
:1002D8001A605A609A60DA601A611D4B5B691C4AA1
:1002E80043F4800353611A4B5B6903F48003BB60DA
:1002F800BB68174B5B69164A43F400335361144BD0
:100308005B6903F400337B607B68114B5B69104ABF
:1003180043F4802353610E4B5B6903F480233B60F5
:100328003B68012208210B4800F042FB0823FB60D0
:1003380001233B6100237B610023BB6107F10C03B0
:100348001946044800F0C2F900BF2037BD4680BDF9
:10035800001002400004004880B400AF72B600BF2D
:10036800FEE7000080B483B000AF0F4B9B690E4AD4
:1003780043F0010393610C4B9B6903F001037B601D
:100388007B68094BDB69084A43F08053D361064B0D
:10039800DB6903F080533B603B6800BF0C37BD4608
:1003A8005DF8047B704700BF0010024080B58AB03A
:1003B80000AF786007F1140300221A605A609A604F
:1003C800DA601A617B681B68184A934229D1184B76
:1003D800DB69174A43F40033D361154BDB6903F437
:1003E80000333B613B69124B5B69114A43F40033AC
:1003F80053610F4B5B6903F40033FB60FB6848F201
:1004080004037B610223BB610023FB6103233B627E
:1004180007237B6207F1140319464FF0904000F060
:1004280055F900BF2837BD4680BD00BF00440040D5
:100438000010024080B400AFFEE780B400AFFEE7D2
:1004480080B400AFFEE780B400AFFEE780B400AF31
:10045800FEE780B400AF00BFBD465DF8047B70477F
:1004680080B400AF00BFBD465DF8047B704780B420
:1004780000AF00BFBD465DF8047B704780B500AF94
:1004880002F01CF900BF80BD80B400AF064BD3F862
:100498008830054A43F47003C2F8883000BFBD466F
:1004A8005DF8047B704700BF00ED00E0DFF834D052
:1004B800FFF7EAFF0C480D490D4A002302E0D45823
:1004C800C4500433C4188C42F9D30A4A0A4C002396
:1004D80001E013600432A242FBD302F033F9FFF7C4
:1004E8006FFEFEE700300020000000200C00002016
:1004F800FC2700080C000020B4000020FEE70000E4
:1005080080B485B000AF78607B6803F00703FB60B8
:100518000C4BDB68BB60BA684FF6FF031340BB6047
:10052800FB681A02BB68134343F0BF6343F400330C
:10053800BB60044ABB68D36000BF1437BD465DF892
:10054800047B704700ED00E080B400AF044BDB682B
:100558001B0A03F007031846BD465DF8047B704785
:1005680000ED00E080B483B000AF03463960FB7152
:1005780097F90730002B0ADB3B68DAB20C4997F988
:1005880007301201D2B20B4483F800230AE03B681B
:10059800DAB20849FB7903F00F03043B1201D2B227
:1005A8000B441A7600BF0C37BD465DF8047B7047D4
:1005B80000E100E000ED00E080B489B000AFF86031
:1005C800B9607A60FB6803F00703FB61FB69C3F15C
:1005D8000703042B28BF0423BB61FB690433062BE4
:1005E80002D9FB69033B00E000237B614FF0FF3237
:1005F800BB6902FA03F3DA43BB681A407B699A4085
:100608004FF0FF317B6901FA03F3D9437B680B4054
:10061800134318462437BD465DF8047B7047000035
:1006280080B582B000AF78607B68013BB3F1807F12
:1006380001D301230FE00A4A7B68013B53600F2175
:100648004FF0FF30FFF78EFF054B00229A60044BF6
:1006580007221A60002318460837BD4680BD00BF30
:1006680010E000E080B582B000AF78607868FFF7EE
:1006780047FF00BF0837BD4680BD80B586B000AFD4
:100688000346B9607A60FB7300237B61FFF75CFF68
:1006980078617A68B9687869FFF78EFF024697F93A
:1006A8000F3011461846FFF75DFF00BF1837BD46EB
:1006B80080BD80B582B000AF78607868FFF7B0FF82
:1006C800034618460837BD4680BD000080B487B091
:1006D80000AF7860396000237B614EE13B681A689F
:1006E80001217B6901FA03F31340FB60FB68002BCF
:1006F80000F040813B685B6803F00303012B05D0E1
:100708003B685B6803F00303022B30D17B689B686E
:100718003B617B695B00032202FA03F3DB433A691E
:1007280013403B613B68DA687B695B0002FA03F3BC
:100738003A6913433B617B683A699A607B685B68F6
:100748003B6101227B6902FA03F3DB433A691340F8
:100758003B613B685B681B0903F001027B6902FA95
:1007680003F33A6913433B617B683A695A603B6813
:100778005B6803F00303032B17D07B68DB683B61DE
:100788007B695B00032202FA03F3DB433A691340F7
:100798003B613B689A687B695B0002FA03F33A693C
:1007A80013433B617B683A69DA603B685B6803F036
:1007B8000303022B23D17B69DA087B68083253F8DC
:1007C80022303B617B6903F007039B000F2202FA8A
:1007D80003F3DB433A6913403B613B681A697B6961
:1007E80003F007039B0002FA03F33A6913433B61E2
:1007F8007B69DA087B680832396943F822107B681C
:100808001B683B617B695B00032202FA03F3DB434D
:100818003A6913403B613B685B6803F003027B69FC
:100828005B0002FA03F33A6913433B617B683A6958
:100838001A603B685B6803F44033002B00F09A8031
:10084800554B9B69544A43F001039361524B9B6992
:1008580003F00103BB60BB68504A7B699B08023305
:1008680052F823303B617B6903F003039B000F229E
:1008780002FA03F3DB433A6913403B617B68B3F147
:10088800904F13D07B68464A93420DD07B68454A07
:10089800934207D07B68444A934201D1032306E080
:1008A800052304E0022302E0012300E000237A6923
:1008B80002F00302920093403A6913433B613749BF
:1008C8007B699B0802333A6941F82320374B9B68C0
:1008D8003B61FB68DB433A6913403B613B685B68FB
:1008E80003F48013002B03D03A69FB6813433B6180
:1008F8002E4A3B6993602D4BDB683B61FB68DB4309
:100908003A6913403B613B685B6803F40013002BB2
:1009180003D03A69FB6813433B61244A3B69D360BF
:10092800224B5B683B61FB68DB433A6913403B61E0
:100938003B685B6803F40033002B03D03A69FB681B
:1009480013433B61194A3B695360184B1B683B6171
:10095800FB68DB433A6913403B613B685B6803F41F
:100968008033002B03D03A69FB6813433B610F4A7D
:100978003B6913607B6901337B613B681A687B695B
:1009880022FA03F3002B7FF4A9AE00BF00BF1C3787
:10099800BD465DF8047B704700100240000001402E
:1009A8000004004800080048000C0048000401400A
:1009B80080B483B000AF78600B467B8013467B70B1
:1009C8007B78002B03D07A887B689A6102E07A886A
:1009D8007B689A6200BF0C37BD465DF8047B7047A0
:1009E80080B485B000AF78600B467B807B685B691C
:1009F800FB607A88FB6813401A04FB68D9437B883C
:100A08000B401A437B689A6100BF1437BD465DF8F6
:100A1800047B704780B5ADF5007D00AF07F5007326
:100A2800A3F5FE73186007F50073A3F5FE731B6842
:100A3800002B02D1012301F023B807F50073A3F5B9
:100A4800FE731B681B6803F00103002B00F07D8117
:100A5800BC4B5B6803F00C03042B0CD0B94B5B68F0
:100A680003F00C03082B5CD1B64B5B6803F48033AE
:100A7800B3F5803F55D14FF40033C7F8F031D7F8BC
:100A8800F03193FAA3F3C7F8EC31D7F8EC31B3FAA5
:100A980083F3DBB25B09DBB243F00103DBB2012B6A
:100AA80002D1A84B1B6815E04FF40033C7F8E831B2
:100AB800D7F8E83193FAA3F3C7F8E4314FF40033D9
:100AC800C7F8E031D7F8E03193FAA3F3C7F8DC317F
:100AD8009C4B5B6A4FF40032C7F8D821D7F8D8216D
:100AE80092FAA2F2C7F8D421D7F8D421B2FA82F246
:100AF800D2B242F02002D2B202F01F02012101FA62
:100B080002F21340002B00F01F8107F50073A3F5D4
:100B1800FE731B685B68002B40F01681012300F010
:100B2800AFBF07F50073A3F5FE731B685B68B3F5E9
:100B3800803F06D1834B1B68824A43F4803313609D
:100B480036E007F50073A3F5FE731B685B68002B9E
:100B58000CD17C4B1B687B4A23F480331360794BA0
:100B68001B68784A23F48023136021E007F500739B
:100B7800A3F5FE731B685B68B3F5A02F0CD1714B0E
:100B88001B68704A43F4802313606E4B1B686D4AE0
:100B980043F4803313600BE06A4B1B68694A23F403
:100BA80080331360674B1B68664A23F48023136005
:100BB800644BDB6A23F00F0207F50073A3F5FE739D
:100BC8001B689B685F491343CB6207F50073A3F565
:100BD800FE731B685B68002B59D001F083FDC7F8D2
:100BE800F8010AE001F07EFD0246D7F8F831D31A81
:100BF800642B02D9032300F043BF4FF40033C7F836
:100C0800D031D7F8D03193FAA3F3C7F8CC31D7F85D
:100C1800CC31B3FA83F3DBB25B09DBB243F00103F7
:100C2800DBB2012B02D1474B1B6815E04FF40033B0
:100C3800C7F8C831D7F8C83193FAA3F3C7F8C43155
:100C48004FF40033C7F8C031D7F8C03193FAA3F393
:100C5800C7F8BC313B4B5B6A4FF40032C7F8B82188
:100C6800D7F8B82192FAA2F2C7F8B421D7F8B4217C
:100C7800B2FA82F2D2B242F02002D2B202F01F02DD
:100C8800012101FA02F21340002BABD05DE001F024
:100C980029FDC7F8F8010AE001F024FD0246D7F85B
:100CA800F831D31A642B02D9032300F0E9BE4FF4BC
:100CB8000033C7F8B031D7F8B03193FAA3F3C7F8C7
:100CC800AC31D7F8AC31B3FA83F3DBB25B09DBB2F2
:100CD80043F00103DBB2012B02D11A4B1B6815E06C
:100CE8004FF40033C7F8A831D7F8A83193FAA3F323
:100CF800C7F8A4314FF40033C7F8A031D7F8A031B2
:100D080093FAA3F3C7F89C310E4B5B6A4FF4003299
:100D1800C7F89821D7F8982192FAA2F2C7F8942137
:100D2800D7F89421B2FA82F2D2B242F02002D2B2BB
:100D380002F01F02012101FA02F21340002BABD18D
:100D480003E000BF0010024000BF07F50073A3F5E1
:100D5800FE731B681B6803F00203002B00F07D8103
:100D6800A64B5B6803F00C03002B0BD0A34B5B680E
:100D780003F00C03082B72D1A04B5B6803F480339B
:100D8800002B6CD10223C7F89031D7F8903193FA31
:100D9800A3F3C7F88C31D7F88C31B3FA83F3DBB2FD
:100DA8005B09DBB243F00103DBB2012B02D1934BA9
:100DB8001B6813E00223C7F88831D7F8883193FA03
:100DC800A3F3C7F884310223C7F88031D7F88031FC
:100DD80093FAA3F3C7F87C31884B5B6A0222C7F801
:100DE8007821D7F8782192FAA2F2C7F87421D7F8B7
:100DF8007421B2FA82F2D2B242F02002D2B202F0E8
:100E08001F02012101FA02F21340002B0AD007F554
:100E18000073A3F5FE731B681B69012B02D0012325
:100E280000F02EBE754B1B6823F0F80207F500731F
:100E3800A3F5FE731B685B69F821C7F87011D7F832
:100E4800701191FAA1F1C7F86C11D7F86C11B1FAC9
:100E580081F1C9B28B40694913430B60FDE007F586
:100E68000073A3F5FE731B681B69002B00F08880D4
:100E78000123C7F86831D7F8683193FAA3F3C7F8A4
:100E88006431D7F86431B3FA83F3DBB203F18453E6
:100E980003F584139B001A460123136001F022FC1A
:100EA800C7F8F8010AE001F01DFC0246D7F8F8314E
:100EB800D31A022B02D9032300F0E2BD0223C7F89C
:100EC8006031D7F8603193FAA3F3C7F85C31D7F8EB
:100ED8005C31B3FA83F3DBB25B09DBB243F00103A5
:100EE800DBB2012B02D1454B1B6813E00223C7F884
:100EF8005831D7F8583193FAA3F3C7F8543102237D
:100F0800C7F85031D7F8503193FAA3F3C7F84C31EA
:100F18003A4B5B6A0222C7F84821D7F8482192FA6F
:100F2800A2F2C7F84421D7F84421B2FA82F2D2B229
:100F380042F02002D2B202F01F02012101FA02F2AD
:100F48001340002BAFD02D4B1B6823F0F80207F598
:100F58000073A3F5FE731B685B69F821C7F840119D
:100F6800D7F8401191FAA1F1C7F83C11D7F83C1114
:100F7800B1FA81F1C9B28B40204913430B606CE090
:100F88000123C7F83831D7F8383193FAA3F3C7F8F3
:100F98003431D7F83431B3FA83F3DBB203F1845335
:100FA80003F584139B001A460023136001F09AFB93
:100FB800C7F8F8010AE001F095FB0246D7F8F831C6
:100FC800D31A022B02D9032300F05ABD0223C7F813
:100FD8003031D7F8303193FAA3F3C7F82C31D7F86A
:100FE8002C31B3FA83F3DBB25B09DBB243F00103C4
:100FF800DBB2012B04D1014B1B6815E00010024045
:101008000223C7F82831D7F8283193FAA3F3C7F891
:1010180024310223C7F82031D7F8203193FAA3F3FB
:10102800C7F81C31C84B5B6A0222C7F81821D7F8E9
:10103800182192FAA2F2C7F81421D7F81421B2FAAB
:1010480082F2D2B242F02002D2B202F01F02012193
:1010580001FA02F21340002BADD107F50073A3F596
:10106800FE731B681B6803F00803002B00F0108157
:1010780007F50073A3F5FE731B689B69002B79D0F5
:101088000123C7F81031D7F8103193FAA3F3C7F842
:101098000C31D7F80C31B3FA83F3DBB21A46AB4BF9
:1010A80013449B001A460123136001F01BFBC7F889
:1010B800F8010AE001F016FB0246D7F8F831D31A16
:1010C800022B02D9032300F0DBBC0223C7F8083146
:1010D800D7F8083193FAA3F3C7F8043107F500737A
:1010E800A3F5807302221A6007F50073A3F58073D5
:1010F8001B6893FAA3F207F50073A3F582731A60CD
:1011080007F50073A3F5847302221A6007F50073CC
:10111800A3F584731B6893FAA3F207F50073A3F58C
:1011280086731A60884B5A6A07F50073A3F58873AB
:101138000221196007F50073A3F588731B6893FAF9
:10114800A3F107F50073A3F58A73196007F5007317
:10115800A3F58A731B68B3FA83F3DBB243F0600329
:10116800DBB203F01F03012101FA03F31340002B44
:10117800A0D08DE007F50073A3F58C7301221A60E7
:1011880007F50073A3F58C731B6893FAA3F207F5B0
:101198000073A3F58E731A6007F50073A3F58E73B9
:1011A8001B68B3FA83F3DBB21A46684B13449B00FF
:1011B8001A460023136001F095FAC7F8F8010AE00F
:1011C80001F090FA0246D7F8F831D31A022B02D967
:1011D800032300F055BC07F50073A3F590730222B2
:1011E8001A6007F50073A3F590731B6893FAA3F2CE
:1011F80007F50073A3F592731A6007F50073A3F55A
:10120800947302221A6007F50073A3F594731B68A0
:1012180093FAA3F207F50073A3F596731A6007F51E
:101228000073A3F5987302221A6007F50073A3F5FB
:1012380098731B6893FAA3F207F50073A3F59A73E2
:101248001A60414B5A6A07F50073A3F59C73022193
:10125800196007F50073A3F59C731B6893FAA3F153
:1012680007F50073A3F59E73196007F50073A3F5DE
:101278009E731B68B3FA83F3DBB243F06003DBB2FF
:1012880003F01F03012101FA03F31340002B97D148
:1012980007F50073A3F5FE731B681B6803F00403CE
:1012A800002B00F0A181002387F8FF31264BDB6972
:1012B80003F08053002B16D1234BDB69224A43F0FD
:1012C8008053D361204BDB6903F0805207F500732C
:1012D800A3F5FC731A6007F50073A3F5FC731B688C
:1012E800012387F8FF311A4B1B6803F48073002B26
:1012F8001AD1174B1B68164A43F48073136001F028
:10130800F1F9C7F8F80109E001F0ECF90246D7F85D
:10131800F831D31A642B01D90323B1E30C4B1B68B2
:1013280003F48073002BEFD007F50073A3F5FE7369
:101338001B68DB68012B0DD1034B1B6A024A43F083
:10134800010313623CE000BF0010024020819010AE
:101358000070004007F50073A3F5FE731B68DB6897
:10136800002B0CD1C14B1B6AC04A23F00103136246
:10137800BE4B1B6ABD4A23F00403136220E007F545
:101388000073A3F5FE731B68DB68052B0CD1B74B04
:101398001B6AB64A43F004031362B44B1B6AB34A90
:1013A80043F0010313620BE0B04B1B6AAF4A23F012
:1013B80001031362AD4B1B6AAC4A23F004031362AA
:1013C80007F50073A3F5FE731B68DB68002B00F0BC
:1013D800818001F087F9C7F8F8010BE001F082F984
:1013E8000246D7F8F831D31A41F28832934201D92C
:1013F800032345E307F50073A3F5A07302221A60DF
:1014080007F50073A3F5A0731B6893FAA3F207F519
:101418000073A3F5A2731A6007F50073A3F5A4730C
:1014280002221A6007F50073A3F5A4731B6893FAE8
:10143800A3F207F50073A3F5A6731A6007F5007306
:10144800A3F5A6731B68B3FA83F3DBB25B09DBB2BF
:1014580043F00203DBB2022B02D1844B1B6A13E078
:1014680007F50073A3F5A87302221A6007F5007345
:10147800A3F5A8731B6893FAA3F207F50073A3F505
:10148800AA731A60794B5B6A07F50072A2F5AC7211
:101498000221116007F50072A2F5AC72126892FA87
:1014A800A2F107F50072A2F5AE72116007F500729D
:1014B800A2F5AE721268B2FA82F2D2B242F04002DB
:1014C800D2B202F01F02012101FA02F21340002BEE
:1014D80084D07FE001F006F9C7F8F8010BE001F0CD
:1014E80001F90246D7F8F831D31A41F2883293420B
:1014F80001D90323C4E207F50073A3F5B0730222F0
:101508001A6007F50073A3F5B0731B6893FAA3F28A
:1015180007F50073A3F5B2731A6007F50073A3F516
:10152800B47302221A6007F50073A3F5B4731B683D
:1015380093FAA3F207F50073A3F5B6731A6007F5DB
:101548000073A3F5B6731B68B3FA83F3DBB25B09C8
:10155800DBB243F00203DBB2022B02D1434B1B6A1E
:1015680013E007F50073A3F5B87302221A6007F5B4
:101578000073A3F5B8731B6893FAA3F207F5007319
:10158800A3F5BA731A60394B5B6A07F50072A2F5C6
:10159800BC720221116007F50072A2F5BC721268D4
:1015A80092FAA2F107F50072A2F5BE72116007F572
:1015B8000072A2F5BE721268B2FA82F2D2B242F09A
:1015C8004002D2B202F01F02012101FA02F21340D6
:1015D800002B84D197F8FF31012B05D1234BDB6910
:1015E800224A23F08053D36107F50073A3F5FE73F5
:1015F8001B68DB69002B00F042821C4B5B6803F020
:101608000C03082B00F0138207F50073A3F5FE7393
:101618001B68DB69022B40F0628107F50073A3F5B4
:10162800C0734FF080721A6007F50073A3F5C0739A
:101638001B6893FAA3F207F50073A3F5C2731A6047
:1016480007F50073A3F5C2731B68B3FA83F3DBB223
:1016580003F1845303F584139B001A460023136097
:1016680001F040F8C7F8F8010CE000BF0010024094
:1016780001F038F80246D7F8F831D31A022B01D90D
:101688000323FDE107F50073A3F5C4734FF000725F
:101698001A6007F50073A3F5C4731B6893FAA3F2E5
:1016A80007F50073A3F5C6731A6007F50073A3F571
:1016B800C6731B68B3FA83F3DBB25B09DBB243F092
:1016C8000103DBB2012B02D1B04B1B6827E007F501
:1016D8000073A3F5C8734FF000721A6007F5007322
:1016E800A3F5C8731B6893FAA3F207F50073A3F573
:1016F800CA731A6007F50073A3F5CC734FF0007234
:101708001A6007F50073A3F5CC731B6893FAA3F26C
:1017180007F50073A3F5CE731A609C4B5B6A07F557
:101728000072A2F5D0724FF00071116007F50072D7
:10173800A2F5D072126892FAA2F107F50072A2F52A
:10174800D272116007F50072A2F5D2721268B2FA6D
:1017580082F2D2B242F02002D2B202F01F0201217C
:1017680001FA02F21340002B82D1884B5B6823F404
:10177800741207F50073A3F5FE731B68596A07F521
:101788000073A3F5FE731B681B6A0B437F49134361
:101798004B6007F50073A3F5D4734FF080721A609D
:1017A80007F50073A3F5D4731B6893FAA3F207F542
:1017B8000073A3F5D6731A6007F50073A3F5D67303
:1017C8001B68B3FA83F3DBB203F1845303F5841384
:1017D8009B001A460123136000F084FFC7F8F80144
:1017E80009E000F07FFF0246D7F8F831D31A022B40
:1017F80001D9032344E107F50073A3F5D8734FF02B
:1018080000721A6007F50073A3F5D8731B6893FA82
:10181800A3F207F50073A3F5DA731A6007F50073EE
:10182800A3F5DA731B68B3FA83F3DBB25B09DBB2A7
:1018380043F00103DBB2012B02D1544B1B6827E0B4
:1018480007F50073A3F5DC734FF000721A6007F513
:101858000073A3F5DC731B6893FAA3F207F5007312
:10186800A3F5DE731A6007F50073A3F5E0734FF074
:1018780000721A6007F50073A3F5E0731B6893FA0A
:10188800A3F207F50073A3F5E2731A603F4B5B6A96
:1018980007F50072A2F5E4724FF00071116007F5C8
:1018A8000072A2F5E472126892FAA2F107F50072CA
:1018B800A2F5E672116007F50072A2F5E6721268E9
:1018C800B2FA82F2D2B242F02002D2B202F01F0281
:1018D800012101FA02F21340002B82D0CFE007F574
:1018E8000073A3F5E8734FF080721A6007F5007370
:1018F800A3F5E8731B6893FAA3F207F50073A3F541
:10190800EA731A6007F50073A3F5EA731B68B3FA64
:1019180083F3DBB203F1845303F584139B001A4667
:101928000023136000F0DEFEC7F8F80109E000F0BC
:10193800D9FE0246D7F8F831D31A022B01D903236E
:101948009EE007F50073A3F5EC734FF000721A6080
:1019580007F50073A3F5EC731B6893FAA3F207F578
:101968000073A3F5EE731A6007F50073A3F5EE7321
:101978001B68B3FA83F3DBB25B09DBB243F0010304
:10198800DBB2012B04D1014B1B6829E00010024097
:1019980007F50073A3F5F0734FF000721A6007F5AE
:1019A8000073A3F5F0731B6893FAA3F207F50073AD
:1019B800A3F5F2731A6007F50073A3F5F4734FF0FB
:1019C80000721A6007F50073A3F5F4731B6893FAA5
:1019D800A3F207F50073A3F5F6731A602B4B5B6A45
:1019E80007F50072A2F5F8724FF00071116007F563
:1019F8000072A2F5F872126892FAA2F107F5007265
:101A0800A2F5FA72116007F50072A2F5FA7212686F
:101A1800B2FA82F2D2B242F02002D2B202F01F022F
:101A2800012101FA02F21340002B80D127E007F5CB
:101A38000073A3F5FE731B68DB69012B01D1012339
:101A48001EE0124B5B68C7F8F431D7F8F43103F4A1
:101A5800803207F50073A3F5FE731B681B6A9A4270
:101A68000BD1D7F8F43103F4701207F50073A3F51E
:101A7800FE731B685B6A9A4201D0012300E00023D1
:101A8800184607F50077BD4680BD00BF001002402C
:101A980080B59EB000AF7860396000237B677B68B3
:101AA800002B01D1012362E1904B1B6803F007036F
:101AB8003A689A4210D98D4B1B6823F007028B496C
:101AC8003B6813430B60894B1B6803F007033A68B4
:101AD8009A4201D001234AE17B681B6803F00203A4
:101AE800002B08D0824B5B6823F0F0027B689B6870
:101AF8007F4913434B607B681B6803F00103002B8D
:101B080000F0DC807B685B68012B3CD14FF400332C
:101B18003B673B6F93FAA3F3FB66FB6EB3FA83F361
:101B2800DBB25B09DBB243F00103DBB2012B02D16C
:101B38006F4B1B680FE04FF40033BB66BB6E93FA24
:101B4800A3F37B664FF400333B663B6E93FAA3F333
:101B5800FB65674B5B6A4FF40032BA65BA6D92FA5F
:101B6800A2F27A657A6DB2FA82F2D2B242F020021B
:101B7800D2B202F01F02012101FA02F21340002B37
:101B88007BD10123F3E07B685B68022B3CD14FF0EB
:101B980000733B653B6D93FAA3F3FB64FB6CB3FAEC
:101BA80083F3DBB25B09DBB243F00103DBB2012B49
:101BB80002D14F4B1B680FE04FF00073BB64BB6C46
:101BC80093FAA3F37B644FF000733B643B6C93FA86
:101BD800A3F3FB63464B5B6A4FF00072BA63BA6BC0
:101BE80092FAA2F27A637A6BB2FA82F2D2B242F035
:101BF8002002D2B202F01F02012101FA02F21340C0
:101C0800002B3AD10123B2E002233B633B6B93FAEA
:101C1800A3F3FB62FB6AB3FA83F3DBB25B09DBB2C3
:101C280043F00103DBB2012B02D1314B1B680DE0FD
:101C38000223BB62BB6A93FAA3F37B6202233B6273
:101C48003B6A93FAA3F3FB61294B5B6A0222BA61F0
:101C5800BA6992FAA2F27A617A69B2FA82F2D2B2D7
:101C680042F02002D2B202F01F02012101FA02F270
:101C78001340002B01D1012379E01D4B5B6823F051
:101C880003027B685B681A4913434B6000F02AFD26
:101C980078670AE000F026FD02467B6FD31A41F20E
:101CA8008832934201D9032361E0114B5B6803F04A
:101CB8000C027B685B689B009A42EBD10B4B1B685C
:101CC80003F007033A689A4214D2084B1B6823F0C2
:101CD800070206493B6813430B60044B1B6803F07B
:101CE80007033A689A4205D0012340E000200240E9
:101CF800001002407B681B6803F00403002B08D027
:101D08001D4B5B6823F4E0627B68DB681A49134368
:101D18004B607B681B6803F00803002B09D0164B47
:101D28005B6823F460527B681B69DB00124913432C
:101D38004B6000F029F801460F4B5B6803F0F00395
:101D4800F0223A613A6992FAA2F2FA60FA68B2FAB3
:101D580082F2D2B2D340094AD35C21FA03F3084A8B
:101D68001360084B1B68184600F078FC00231846DF
:101D78007837BD4680BD00BF00100240BC27000870
:101D8800000000200400002080B48BB000AF0023C6
:101D9800FB610023BB6100237B6200237B6100237E
:101DA8003B62294B5B68FB61FB6903F00C03042B66
:101DB80002D0082B03D03CE0244B3B623CE0FB699B
:101DC80003F470134FF47012BA60BA6892FAA2F270
:101DD8007A607A68B2FA82F2D2B2D3401C4AD35CF3
:101DE8007B61194BDB6A03F00F030F223A613A69F2
:101DF80092FAA2F2FA60FA68B2FA82F2D2B2D34048
:101E0800144AD35CBB61FB6903F48033002B08D010
:101E18000E4ABB69B2FBF3F27B6902FB03F37B62F8
:101E280004E07B690C4A02FB03F37B627B6A3B623A
:101E380002E0064B3B6200BF3B6A18462C37BD46A2
:101E48005DF8047B704700BF0010024000127A0062
:101E5800D4270008E427000800093D0080B400AF3B
:101E6800034B1B681846BD465DF8047B704700BFEE
:101E78000000002080B582B000AFFFF7EFFF0146F9
:101E88000B4B5B6803F4E0634FF4E0627A607A68B6
:101E980092FAA2F23A603A68B2FA82F2D2B2D34027
:101EA800044AD35C21FA03F318460837BD4680BDBF
:101EB80000100240CC27000880B582B000AFFFF7C1
:101EC800CDFF01460B4B5B6803F460534FF460523F
:101ED8007A607A6892FAA2F23A603A68B2FA82F2C2
:101EE800D2B2D340044AD35C21FA03F31846083728
:101EF800BD4680BD00100240CC27000880B582B0E6
:101F080000AF78607B68002B01D1012340E07B683B
:101F1800DB6F002B06D17B68002283F87820786875
:101F2800FEF744FA7B682422DA677B681B681A6824
:101F38007B681B6822F001021A60786800F02CF8B0
:101F48000346012B01D1012322E07B685B6A002B49
:101F580002D0786800F056F97B681B685A687B687D
:101F68001B6822F490425A607B681B689A687B68F9
:101F78001B6822F02A029A607B681B681A687B68D3
:101F88001B6842F001021A60786800F0DDF9034628
:101F980018460837BD4680BD80B588B000AF786068
:101FA8000023BB777B689A687B681B691A437B6848
:101FB8005B691A437B68DB6913437B617B681B6839
:101FC8001A688A4B13407A68126879690B43136060
:101FD8007B681B685B6823F440517B68DA687B6820
:101FE8001B680A435A607B689B697B617B681B6A34
:101FF8007A6913437B617B681B689B6823F43061B3
:102008007B681B687A690A439A607B681B68784A10
:10201800934220D1774B1B6B03F00303032B17D894
:1020280001A252F823F000BF412000084D2000080B
:1020380053200008472000080023FB771DE00223F7
:10204800FB771AE00423FB7717E00823FB7714E0FB
:102058001023FB7711E07B681B68674A934202D123
:102068000023FB7709E07B681B68644A934202D12E
:102078000023FB7701E01023FB777B68DB69B3F56E
:10208800004F5AD1FB7F082B27D801A252F823F022
:10209800BD200008C5200008CD200008E320000866
:1020A800D3200008E3200008E3200008E32000080C
:1020B800DB200008FFF7DEFEB86113E0FFF7FCFE47
:1020C800B8610FE04E4BBB610CE0FFF75DFEB861F5
:1020D80008E04FF40043BB6104E00023BB61012327
:1020E800BB7700BFBB69002B74D0BB695A007B6803
:1020F8005B685B081A447B685B68B2FBF3F33B617F
:102108003B690F2B16D93B69B3F5803F12D23B6967
:102118009BB223F00F03FB813B695B089BB203F082
:1021280007039AB2FB891343FB817B681B68FA8912
:10213800DA604FE00123BB774CE0FB7F082B28D8FF
:1021480001A252F823F000BF752100087D21000884
:10215800852100089B2100088B2100089B2100088D
:102168009B2100089B21000893210008FFF782FEAD
:10217800B86113E0FFF7A0FEB8610FE0204BBB6128
:102188000CE0FFF701FEB86108E04FF40043BB61C3
:1021980004E00023BB610123BB7700BFBB69002BB0
:1021A80018D07B685B685A08BB691A447B685B680F
:1021B800B2FBF3F33B613B690F2B09D93B69B3F5DC
:1021C800803F05D23B699AB27B681B68DA6001E000
:1021D8000123BB777B6800229A667B680022DA6657
:1021E800BB7F18462037BD4680BD00BFF369FFEFAF
:1021F8000038014000100240004400400048004000
:1022080000127A0080B483B000AF78607B685B6AA4
:1022180003F00103002B0AD07B681B685B6823F47A
:1022280000317B689A6A7B681B680A435A607B683E
:102238005B6A03F00203002B0AD07B681B685B68AB
:1022480023F480317B68DA6A7B681B680A435A602A
:102258007B685B6A03F00403002B0AD07B681B6869
:102268005B6823F480217B681A6B7B681B680A43D0
:102278005A607B685B6A03F00803002B0AD07B680E
:102288001B685B6823F400417B685A6B7B681B689A
:102298000A435A607B685B6A03F01003002B0AD07C
:1022A8007B681B689B6823F480517B689A6B7B680A
:1022B8001B680A439A607B685B6A03F02003002B63
:1022C8000AD07B681B689B6823F400517B68DA6B33
:1022D8007B681B680A439A607B685B6A03F040036B
:1022E800002B1AD07B681B685B6823F480117B681D
:1022F8001A6C7B681B680A435A607B681B6CB3F5D1
:10230800801F0AD17B681B685B6823F4C0017B6867
:102318005A6C7B681B680A435A607B685B6A03F0E7
:102328008003002B0AD07B681B685B6823F40021BC
:102338007B689A6C7B681B680A435A6000BF0C373D
:10234800BD465DF8047B704780B598B002AF7860F1
:102358007B680022C3F8842000F0C4F978657B68A4
:102368001B681B6803F00803082B2ED16FF07E430F
:1023780000937B6D00224FF40011786800F08CF810
:102388000346002B21D07B681B68BB63BB6B53E8FB
:10239800003F7B637B6B23F080033B657B681B6896
:1023A8001A463B6D7B643A64396C7A6C41E80023C9
:1023B800FB63FB6B002BE6D17B682022DA677B6826
:1023C800002283F87820032362E07B681B681B687F
:1023D80003F00403042B49D16FF07E4300937B6D17
:1023E80000224FF48001786800F056F80346002B6D
:1023F8003CD07B681B687B627B6A53E8003F3B628A
:102408003B6A23F49073FB647B681B681A46FB6C79
:102418003B63FA62F96A3A6B41E80023BB62BB6A24
:10242800002BE6D17B681B6808333B613B6953E8A6
:10243800003FFB60FB6823F00103BB647B681B68FB
:102448000833BA6CFA61BB61B969FA6941E80023DB
:102458007B617B69002BE5D17B682022C3F8802053
:102468007B68002283F87820032311E07B68202210
:10247800DA677B682022C3F880207B6800221A660E
:102488007B6800225A667B68002283F87820002344
:1024980018465837BD4680BD80B584B000AFF86097
:1024A800B9603B601346FB7149E0BB69B3F1FF3F7C
:1024B80045D000F017F902463B68D31ABA699A4228
:1024C80002D3BB69002B01D1032348E0FB681B68DA
:1024D8001B6803F00403002B31D0FB681B68DB6921
:1024E80003F00803082B10D1FB681B6808221A6246
:1024F800F86800F038F8FB680822C3F88420FB6805
:10250800002283F87820012329E0FB681B68DB6937
:1025180003F40063B3F5006F11D1FB681B684FF437
:1025280000621A62F86800F01EF8FB682022C3F8FF
:102538008420FB68002283F8782003230FE0FB68DF
:102548001B68DA69BB681340BA689A420CBF01235A
:102558000023DBB21A46FB799A42A6D0002318461C
:102568001037BD4680BD80B495B000AF78607B68F9
:102578001B687B637B6B53E8003F3B633B6B23F437
:102588009073FB647B681B681A46FB6C3B64FA63B8
:10259800F96B3A6C41E80023BB63BB6B002BE6D1B7
:1025A8007B681B6808333B623B6A53E8003FFB616A
:1025B800FB6923F00103BB647B681B680833BA6CB2
:1025C800FA62BB62B96AFA6A41E800237B627B6AF5
:1025D800002BE5D17B681B6E012B18D17B681B682B
:1025E800FB60FB6853E8003FBB60BB6823F0100347
:1025F8007B647B681B681A467B6CBB617A6179696E
:10260800BA6941E800233B613B69002BE6D17B684E
:102618002022C3F880207B6800221A667B6800228B
:102628009A6600BF5437BD465DF8047B70470000CA
:1026380080B500AF084B1B68074A43F010031360CE
:102648000320FEF70FF8002000F008F8FDF78AFED7
:102658000023184680BD00BF0020024080B582B02C
:1026680000AF7860124B1A68124B1B7819464FF46A
:102678007A73B3FBF1F3B2FBF3F31846FEF719F8DC
:102688000346002B01D001230EE07B680F2B0AD8EC
:10269800002279684FF0FF30FDF7EFFF064A7B68AC
:1026A8001360002300E0012318460837BD4680BDAB
:1026B80000000020080000200400002080B400AFC3
:1026C800064B1B781A46064B1B681344044A1360D2
:1026D80000BFBD465DF8047B704700BF08000020BE
:1026E800B000002080B400AF034B1B681846BD46FD
:1026F8005DF8047B704700BFB000002080B584B04F
:1027080000AF7860FFF7EEFFB8607B68FB60FB689E
:10271800B3F1FF3F05D00A4B1B781A46FB681344F8
:10272800FB6000BFFFF7DEFF0246BB68D31AFA68FA
:102738009A42F7D800BF00BF1037BD4680BD00BF22
:102748000800002070B50D4D0D4C641BA410002628
:10275800A64209D10B4D0C4C00F020F8641BA410C4
:102768000026A64205D170BD55F8043B98470136AE
:10277800EEE755F8043B98470136F2E7F4270008DE
:10278800F4270008F4270008F82700080244034645
:10279800934200D1704703F8011BF9E7F8B500BF71
:1027A800F8BC08BC9E467047F8B500BFF8BC08BC2A
:0427B8009E46704782
:1027BC0000000000000000000102030406070809E5
:1027CC0000000000010203040203040506070809C7
:1027DC000A0B0C0D0E0F101001020304050607085E
:0827EC00090A0B0C0D0E0F1081
:0427F400AD0100082B
:0427F800890100084B
:0C27FC0000127A00100000000100000034
:04000005080004B536
:00000001FF
